:020000040800F2
:100000006807002021020008090400080104000814
:1000100005040008DB020008B50700080000000026
:10002000000000000000000000000000890100083E
:10003000DF02000800000000CD0100084D070008A5
:100040003B0200083B0200083B0200083B0200089C
:100050003B0200083B0200083B0200083B0200088C
:100060003B0200083B0200083B0200083B0200087C
:100070003B0200083B0200083B0200083B0200086C
:100080003B0200083B0200083B0200083B0200085C
:100090003B0200083B0200083B0200083B0200084C
:1000A0003B0200083B0200083B0200083B0200083C
:1000B0003B0200083B0200083B0200083B0200082C
:1000C0003B0200083B0200083B0200083B0200081C
:1000D0003B0200083B0200083B0200083B0200080C
:1000E0003B0200083B0200083B02000800F002F857
:1000F00000F03AF80AA090E8000C82448344AAF188
:100100000107DA4501D100F02FF8AFF2090EBAE885
:100110000F0013F0010F18BFFB1A43F0010318473B
:10012000C4080000E4080000103A24BF78C878C171
:10013000FAD8520724BF30C830C144BF04680C60ED
:10014000704700000023002400250026103A28BF35
:1001500078C1FBD8520728BF30C148BF0B60704739
:100160001FB51FBD10B510BD00F07DF81146FFF79B
:10017000F7FF00F021FB00F09BF803B4FFF7F2FF5C
:1001800003BC00F0A3F80000224B19680868B0E82F
:10019000F00F80F30988BFF36F8F4FF0000080F3FA
:1001A00011884EF00D0E70470000000006480068F0
:1001B000006880F3088862B661B6BFF34F8FBFF363
:1001C0006F8F00DF00BF00BF08ED00E0EFF3098094
:1001D000BFF36F8F0F4B1A6820E9F00F106008B55E
:1001E0004FF0BF0080F31188BFF34F8FBFF36F8FC5
:1001F00000F020FB4FF0000080F31188BDE80840BC
:1002000019680868B0E8F00F80F30988BFF36F8FB2
:10021000704700BF00000020EFF30580704700002A
:100220000948804709480047FEE7FEE7FEE7FEE78A
:10023000FEE7FEE7FEE7FEE7FEE7FEE704480549C6
:10024000054A064B7047000055070008ED000008FE
:100250006801002068070020680300206803002070
:10026000704770477047754600F02CF8AE460500A1
:100270006946534620F00700854618B020B5FFF7C1
:10028000DDFFBDE820404FF000064FF000074FF0C3
:1002900000084FF0000B21F00701AC46ACE8C009A4
:1002A000ACE8C009ACE8C009ACE8C0098D467047AD
:1002B00010B50446AFF300802046BDE81040FFF7BC
:1002C0005CBF00000048704704010020014918206D
:1002D000ABBEFEE726000200704700BFFEE7704796
:1002E0002DE9F041024600250026002000230024CD
:1002F000002791F803C00CF00F0591F803C00CF033
:10030000100CBCF1000F03D091F802C04CEA0505B7
:1003100091F800C0BCF1000F31D0146800202BE030
:100320004FF0010C0CFA00F3B1F800C00CEA030620
:100330009E4220D183004FF00F0C0CFA03F7BC4310
:1003400005FA03FC4CEA040491F803C0BCF1280F41
:1003500006D14FF0010C0CFA00FCC2F814C00AE000
:1003600091F803C0BCF1480F05D14FF0010C0CFA15
:1003700000FCC2F810C0401C0828D1D31460B1F8AA
:1003800000C0BCF1FF0F34DD546800202EE000F106
:10039000080C4FF0010808FA0CF3B1F800C00CEAA1
:1003A00003069E4221D183004FF00F0C0CFA03F795
:1003B000BC4305FA03FC4CEA040491F803C0BCF109
:1003C000280F05D100F1080C08FA0CF8C2F81480C7
:1003D00091F803C0BCF1480F07D100F1080C4FF0B1
:1003E000010808FA0CF8C2F81080401C0828CED387
:1003F0005460BDE8F0810AB1016100E041617047DD
:1004000000BFFEE700BFFEE7704770B500240EE0B6
:100410000021204600F0E5F8002504E0002000F06F
:1004200001F9681CC5B2802DF8DB601CC4B2082C31
:10043000EEDB70BD08B50121082000F003F914209F
:100440008DF8030003208DF802004FF48070ADF8A2
:10045000000069460A48FFF743FF4FF40070ADF80B
:10046000000069460648FFF73BFF012211020448DD
:10047000FFF7C1FF012251020148FFF7BCFF08BD91
:10048000000C014070B50546002415E08020204195
:1004900000EA05024FF400710E48FFF7ACFF01229D
:1004A00011020C48FFF7A7FF00224FF480710948A2
:1004B000FFF7A1FF601CC4B2082CE7DB0122110288
:1004C0000448FFF798FF00224FF480710148FFF7BE
:1004D00092FF70BD000C014010B5012251020A4884
:1004E000FFF789FF012211020748FFF784FF00226E
:1004F0004FF400710448FFF77EFF00224FF4807133
:100500000148FFF778FF10BD000C014010B5002234
:100510004FF400710648FFF76EFF012211020448F4
:10052000FFF769FF012251020148FFF764FF10BD88
:10053000000C014070B5002406E0002500E06D1CB1
:10054000B5F57A7FFBD3641CB4F57A7FF5D3FFF75A
:1005500071FFAE2000F056F8D52000F053F880204F
:1005600000F050F8A82000F04DF83F2000F04AF8C5
:10057000D32000F047F8002000F044F8402000F0BD
:1005800041F8A12000F03EF8C82000F03BF8DA2046
:1005900000F038F8122000F035F8812000F032F831
:1005A000CF2000F02FF8D92000F02CF8F12000F037
:1005B00029F8DB2000F026F8302000F023F8A420F2
:1005C00000F020F8A62000F01DF88D2000F01AF8A9
:1005D000142000F017F8AF2000F014F8FFF715FF13
:1005E00070BD70B505460C4645F0B00000F00AF845
:1005F000102141EA141000F005F804F00F0000F09B
:1006000001F870BD10B50446FFF766FF7820FFF7CC
:1006100039FF0020FFF736FF2046FFF733FFFFF7D3
:1006200075FF10BD10B50446FFF756FF7820FFF7A1
:1006300029FF4020FFF726FF2046FFF723FFFFF7A3
:1006400065FF10BD29B1064A92690243044B9A61C5
:1006500004E0034A92698243014B9A6170470000AB
:100660000010024010B500F001F810BD0CB50020DC
:10067000019000903348006840F4803031490860B0
:1006800000BF3048006800F4003000900198401C22
:100690000190009818B90198B0F5A06FF1D12948E0
:1006A000006800F4003010B10120009001E000204B
:1006B00000900098012843D12348006840F01000C2
:1006C000214908600846006820F0030008600846D9
:1006D000006840F0020008601A4840681949486004
:1006E0000846406848600846406840F480604860BA
:1006F0000846406820F47C1048600846406840F492
:10070000E81048600846006840F08070086000BF4C
:100710000C48006800F000700028F9D009484068D3
:1007200020F00300074948600846406840F0020096
:10073000486000BF0348406800F00C000828F9D169
:100740000CBD0000001002400020024010B500F077
:10075000A1F810BD10B51348006840F00100114920
:10076000086008464068104908400E49486008463D
:1007700000680E4908400B4908600846006820F4EC
:10078000802008600846406820F4FE0048604FF46E
:100790001F008860FFF766FF4FF0006004490860A3
:1007A00010BD0000001002400000FFF8FFFFF6FE41
:1007B00008ED00E000BFFEE7FFF7BCFE00BFFEE76C
:1007C0000A490968096809B9012100E0002121B13D
:1007D0004FF0FF31064A116006E004490968C96814
:1007E000C868034A41681160704700000400002097
:1007F0003000002001460A69D1E901309860D1E952
:10080000010358605068884201D188685060002018
:1008100008611068401E10601068704742684A60A6
:1008200093688B60936859609160086103685B1CF2
:10083000036070471248006818B101201149086030
:100840001DE000200F4908600F480068B0FA80F0F2
:10085000C0F11F0101EB81020C4B03EB82004268E7
:100860005268426000F108024368934202D1426834
:10087000526842604268D268054B1A6000BF7047F8
:100880003800002024000020180000203C00002038
:100890000000002010B500BFBF2080F31188BFF317
:1008A0004F8FBFF36F8F00BF00F00EF818B14FF0FD
:1008B00080500449086000BF002080F3118800BF09
:1008C00010BD000004ED00E02DE9F04100273A489A
:1008D0000068002863D139480068451C3748056026
:1008E0008DB93748D0F80080364800683449086030
:1008F0003448C0F8008034480068401C3249086021
:10090000FFF75EFF00BF3148006885423BD300BF60
:100910002B480068006808B9012000E0002020B1E1
:100920004FF0FF30294908602CE025480068C06876
:10093000C4686668B54202D22448066022E0201DE1
:10094000FFF758FFA06A18B104F11800FFF752FF33
:1009500094F82C10012088401D49096808431C495F
:100960000860E16A01EB81011A4A02EB8100211D56
:10097000FFF754FF1849E06A0968C96A8842C7D37B
:100980000127C5E700BF14480068C06A00EB80007B
:10099000104951F82000012800D9012704E00F4830
:1009A0000068401C0D4908600D48006800B101272F
:1009B0003846BDE8F0810000380000201400002017
:1009C0000400002008000020280000203000002043
:1009D000180000203C000020000000202000002023
:1009E00024000020040A0008000000203C00000051
:1009F00028010008400A00083C0000202C070000E5
:100A00004401000800000000000000000000000099
:100A100000000000000000000000000000000000D6
:100A200000000000000000000000000000000000C6
:100A300000000000000000000000000000000000B6
:04000005080000ED02
:00000001FF
