:020000040800F2
:10000000382D00209901000825040008210300086C
:1000100021040008E1010008D107000800000000E9
:1000200000000000000000000000000001010008C6
:10003000E50100080000000045010008690700080C
:10004000B3010008B3010008B3010008B3010008C0
:10005000B3010008B3010008B3010008B3010008B0
:10006000B3010008B3010008B3010008B3010008A0
:10007000B3010008B3010008B3010008B301000890
:10008000B3010008B3010008B3010008B301000880
:10009000B3010008B3010008B3010008B301000870
:1000A000B3010008B3010008B3010008B301000860
:1000B000B3010008B3010008B3010008B301000850
:1000C000B3010008B3010008B3010008B301000840
:1000D000B3010008B3010008B3010008B301000830
:1000E000B3010008B3010008B3010008DFF80CD029
:1000F00000F064F80048004725080008382D00206B
:10010000224B19680868B0E8F00F80F30988BFF344
:100110006F8F4FF0000080F311884EF00D0E704786
:100120000000000006480068006880F3088862B696
:1001300061B6BFF34F8FBFF36F8F00DF00BF00BF0B
:1001400008ED00E0EFF30980BFF36F8F0F4B1A68E3
:1001500020E9F00F106008B54FF0BF0080F3118860
:10016000BFF34F8FBFF36F8F00F0B4FF4FF000006D
:1001700080F31188BDE8084019680868B0E8F00FFE
:1001800080F30988BFF36F8F704700BF0000002025
:10019000EFF3058070470000064880470648004797
:1001A000FEE7FEE7FEE7FEE7FEE7FEE7FEE7FEE727
:1001B000FEE7FEE771070008ED000008064C074D5A
:1001C00006E0E06840F0010394E807009847103427
:1001D000AC42F6D3FFF78EFF00140008201400088D
:1001E00000BFFEE770472DE9F041024600250026DA
:1001F000002000230024002791F803C00CF00F0515
:1002000091F803C00CF0100CBCF1000F03D091F872
:1002100002C04CEA050591F800C0BCF1000F31D0D6
:10022000146800202BE04FF0010C0CFA00F3B1F839
:1002300000C00CEA03069E4220D183004FF00F0C51
:100240000CFA03F7BC4305FA03FC4CEA040491F8EA
:1002500003C0BCF1280F06D14FF0010C0CFA00FCD2
:10026000C2F814C00AE091F803C0BCF1480F05D1F0
:100270004FF0010C0CFA00FCC2F810C0401C08281A
:10028000D1D31460B1F800C0BCF1FF0F34DD546865
:1002900000202EE000F1080C4FF0010808FA0CF3E2
:1002A000B1F800C00CEA03069E4221D183004FF052
:1002B0000F0C0CFA03F7BC4305FA03FC4CEA0404E8
:1002C00091F803C0BCF1280F05D100F1080C08FA21
:1002D0000CF8C2F8148091F803C0BCF1480F07D1A4
:1002E00000F1080C4FF0010808FA0CF8C2F8108071
:1002F000401C0828CED35460BDE8F081024600209F
:1003000093680B400BB1012000E000207047416171
:100310007047016170470AB1016100E041617047B7
:1003200000BFFEE710B5002402211448FFF7E6FFE6
:1003300068B9142000F014FE00BF02210F48FFF737
:10034000DDFF0028F9D0142000F00AFE01244FF44C
:1003500000610A48FFF7D2FF70B9142000F000FED8
:1003600000BF4FF400610548FFF7C8FF0028F8D030
:10037000142000F0F5FD0224204610BD000C0140C1
:1003800008B50121082000F06BF948208DF8030022
:1003900040F60200ADF8000003208DF80200694627
:1003A0000148FFF720FF08BD000C014010B50221F5
:1003B0000148FFF7AEFF10BD0008014010B5022153
:1003C0000148FFF7A4FF10BD0008014010B504214B
:1003D0000148FFF79EFF10BD0008014010B5042141
:1003E0000148FFF794FF10BD0008014008B5012146
:1003F000042000F035F910208DF803000620ADF838
:10040000000003208DF8020069460448FFF7EBFE68
:1004100006210248FFF77DFF08BD000000080140EB
:1004200000BFFEE7704770B500240EE000212046B3
:1004300000F0E5F8002504E0002000F001F9681C58
:10044000C5B2802DF8DB601CC4B2082CEEDB70BD99
:1004500008B50121082000F003F914208DF80300ED
:1004600003208DF802004FF48070ADF8000069465B
:100470000A48FFF7B8FE4FF40070ADF80000694677
:100480000648FFF7B0FE012211020448FFF743FFC0
:10049000012251020148FFF73EFF08BD000C014058
:1004A00070B50546002415E08020204100EA0502D1
:1004B0004FF400710E48FFF72EFF012211020C4885
:1004C000FFF729FF00224FF480710948FFF723FF4F
:1004D000601CC4B2082CE7DB012211020448FFF7BC
:1004E0001AFF00224FF480710148FFF714FF70BD1E
:1004F000000C014010B5012251020A48FFF70BFF22
:10050000012211020748FFF706FF00224FF4007195
:100510000448FFF700FF00224FF480710148FFF705
:10052000FAFE10BD000C014010B500224FF400711E
:100530000648FFF7F0FE012211020448FFF7EBFE28
:10054000012251020148FFF7E6FE10BD000C0140F8
:1005500070B5002406E0002500E06D1CB5F57A7F3B
:10056000FBD3641CB4F57A7FF5D3FFF771FFAE209F
:1005700000F056F8D52000F053F8802000F050F835
:10058000A82000F04DF83F2000F04AF8D32000F0FA
:1005900047F8002000F044F8402000F041F8A12086
:1005A00000F03EF8C82000F03BF8DA2000F038F800
:1005B000122000F035F8812000F032F8CF2000F052
:1005C0002FF8D92000F02CF8F12000F029F8DB20DA
:1005D00000F026F8302000F023F8A42000F020F8E6
:1005E000A62000F01DF88D2000F01AF8142000F06D
:1005F00017F8AF2000F014F8FFF715FF70BD70B5C5
:1006000005460C4645F0B00000F00AF8102141EA1A
:10061000141000F005F804F00F0000F001F870BDB0
:1006200010B50446FFF766FF7820FFF739FF00207A
:10063000FFF736FF2046FFF733FFFFF775FF10BDCA
:1006400010B50446FFF756FF7820FFF729FF40203A
:10065000FFF726FF2046FFF723FFFFF765FF10BDDA
:1006600029B1064A92690243044B9A6104E0034AA5
:1006700092698243014B9A6170470000001002406A
:1006800010B500F001F810BD0CB5002001900090ED
:100690003348006840F480303149086000BF30487A
:1006A000006800F4003000900198401C0190009810
:1006B00018B90198B0F5A06FF1D12948006800F48D
:1006C000003010B10120009001E00020009000985F
:1006D000012843D12348006840F0100021490860F8
:1006E0000846006820F0030008600846006840F0F3
:1006F000020008601A484068194948600846406886
:1007000048600846406840F4806048600846406899
:1007100020F47C1048600846406840F4E8104860C7
:100720000846006840F08070086000BF0C48006810
:1007300000F000700028F9D00948406820F003005C
:10074000074948600846406840F00200486000BF22
:100750000348406800F00C000828F9D10CBD0000E7
:10076000001002400020024010B500F0FDFC10BD5A
:1007700010B51348006840F00100114908600846B0
:100780004068104908400E494860084600680E4914
:1007900008400B4908600846006820F48020086083
:1007A0000846406820F4FE0048604FF41F0088604F
:1007B000FFF766FF4FF000600449086010BD0000BD
:1007C000001002400000FFF8FFFFF6FE08ED00E019
:1007D00000BFFEE702E008C8121F08C1002AFAD1D4
:1007E00070477047002001E001C1121F002AFBD1B1
:1007F000704700001CB50648012100238022CDE986
:10080000001004A1064800F0C9FC00F029FC1CBD42
:100810005C00002073746172745F7461736B00001C
:10082000350D000810B5FFF793FEFFF7A9FDFFF7A0
:10083000DDFDFFF7DFFF002010BD00002DE9F041D6
:1008400005460E461C4807681C480068001D00F05D
:10085000EDFA50B91948006890F82C100120884032
:1008600017490968814316480160681C38B936B1D8
:1008700012480168091D134800F016FB1AE07C19A4
:100880000E4800684460BC4207D20C480168091D4C
:100890000D48006800F0EEFA0CE008480168091DF8
:1008A0000A48006800F0E6FA09480068844201D26C
:1008B00007480460BDE8F08114000020000000201B
:1008C0001800002020010020080000200400002063
:1008D0003000002010B5044600F0F2FA234800680A
:1008E000401C224908602248006840B92048046042
:1008F0000846006801280DD100F014F90AE01D48EF
:10090000006838B91A480068C06AE16A884201D8AC
:100910001748046018480068401C1749086094F89C
:100920002C100120884015490968084313490860C4
:10093000E16A01EB8101124A02EB8100211D00F006
:10094000B3FA00F0CFFA0B48006868B108480068B5
:10095000C06AE16A884207D24FF0805009490860B6
:10096000BFF34F8FBFF36F8F10BD0000100000204A
:10097000000000201C0000202C0000201800002097
:100980006C00002004ED00E070B523E000F09AFB5D
:100990001348006808B9012000E00020054600F077
:1009A000BBFCBDB900F08CFA0D48C068C468201DBE
:1009B00000F03CFA0B480068401E0A4908600A48EB
:1009C0000068401E0849086000F08CFA204600F0DC
:1009D0000DF800BF044800680028D7D170BD0000A2
:1009E0000C010020100000200C00002010B504466F
:1009F000206B00F087FA204600F084FA10BD00005A
:100A000030B54FF42053174800F007042CB1C01D37
:100A100020F00700134C041B1B1B0246124C2260E3
:100A20000024114D6C60D018083820F007000F4CDE
:100A3000206000240D4D2D686C600C4D2D682C60DD
:100A40001146441A4C60094C24680C60084D4C68EF
:100A50002C60084D4C682C604FF00044064D2C6013
:100A600030BD0000340100203C0000204400002084
:100A70004C000020480000205000002000BFFFF77D
:100A800083FF064800680128F9D94FF080500449D7
:100A90000860BFF34F8FBFF36F8FF0E76C0000204B
:100AA00004ED00E02DE9FF5F80460E469146DDE94A
:100AB0000E7A109CA9F10100216B01EB800B2BF049
:100AC000070B002507E0715D04F134004155705DAE
:100AD00000B902E06D1C102DF5D300BF00214320AA
:100AE0000155052F00D30427E762201D00F0BFF950
:100AF00004F1180000F0BBF92461C7F10500A06102
:100B000064620020606484F8480041465846039AB5
:100B100000F0FEF82060BAF1000F01D0CAF80040E2
:100B2000BDE8FF9F10B5002407E004EB84010F4AE5
:100B300002EB810000F08EF9641C052CF5D30C4803
:100B400000F088F90B4800F085F90B4800F082F9B5
:100B50000A4800F07FF90A4800F07CF90448094986
:100B6000086004480849086010BD00006C000020BF
:100B7000D0000020E4000020F80000200C0100203C
:100B800020010020040000200800002010B50146CC
:100B9000164800E0006803688B42FBD302464368B6
:100BA00013448B4204D143684C682344436001469C
:100BB0000A464B6813440468A34211D10C4C0368E5
:100BC0002468A34208D04B680468646823444B60DF
:100BD00003681B680B6005E0054B1B680B6001E0B8
:100BE00003680B60884200D0016010BD3C0000200B
:100BF000440000200A490968096809B9012100E098
:100C0000002121B14FF0FF31064A116006E004498E
:100C10000968C968C868034A4168116070470000E4
:100C2000040000203000002000BFBF2080F31188A6
:100C3000BFF34F8FBFF36F8F00BF00BFFEE7000011
:100C40002DE9F04105464FF0000800F03BFA2B4833
:100C5000006808B9FFF7D4FE29480068284000283A
:100C600047D145B1083505F0070020B105F0070070
:100C7000C0F108000544002D3BD0224800688542A1
:100C800037D8214E3046046801E026462468606863
:100C9000A84202D220680028F7D118480068844290
:100CA00027D0306800F10808206830606068401B79
:100CB000102807D967196068401B7860656038465E
:100CC000FFF764FF0F4960680968081A0D4908605A
:100CD000084600680D490968884203D2094800683F
:100CE0000A49086006496068096808436060002096
:100CF000206000F011FB4046BDE8F0814400002078
:100D000050000020480000203C0000204C00002043
:100D1000001F4FF080730360001F21F00103036088
:100D2000001F034B03601438026020387047000036
:100D3000290C00081CB5044600F0C2F81248022134
:100D400000233222CDE9001010A1124800F026FA4B
:100D50001148032100233222CDE900100FA11148D0
:100D600000F01CFA1048042100233222CDE90010C3
:100D70000EA1104800F012FA0F48006800F00AF9BE
:100D800000F0B0F81CBD0000600000207461736BBF
:100D900031000000BD0D0008640000207461736B19
:100DA00032000000D90D0008680000207461736BE8
:100DB00033000000F50D00085C0000200BE0FFF799
:100DC000FDFA4FF4FA7000F0CBF8FFF7EFFA4FF4AA
:100DD000FA7000F0C5F8F2E70BE0FFF7FFFA4FF406
:100DE000FA7000F0BDF8FFF7F1FA4FF4FA7000F076
:100DF000B7F8F2E714E0FFF795FA0A4908700846D9
:100E00000078012809D10848006830B10648006818
:100E100000F0C0F80020044908600A2000F0A0F8A3
:100E2000E9E70000580000206000002001460A6940
:100E3000D1E901309860D1E90103586050688842D7
:100E400001D188685060002008611068401E106061
:100E50001068704700F1080141604FF0FF31816078
:100E600000F10801C16001610021016070470021AB
:100E70000161704710B502460B685C1C0CB9106923
:100E800007E002F1080000E04068446824689C42E2
:100E9000FAD944684C604C68A160886041600A617E
:100EA0001468641C146010BD42684A6093688B60CB
:100EB000936859609160086103685B1C0360704728
:100EC00000BFBF2080F31188BFF34F8FBFF36F8F38
:100ED00000BF03480068401C0149086070470000DB
:100EE0005400002006480068401E05490860084676
:100EF000006820B9002080F3118800BF00BF704750
:100F00005400002070B506463546D6B1083D2C4643
:100F10000C4960680968084098B1206888B9094997
:100F2000606809688843606000F0CCF80649606832
:100F300009680844044908602046FFF727FE00F0CE
:100F4000EBF970BD500000204800002003484FF02E
:100F5000E021486107200861704700003F19010047
:100F600070B50446002544B100F0ACF800212046DD
:100F7000FFF764FC00F0D0F905463DB94FF0805012
:100F800003490860BFF34F8FBFF36F8F70BD000040
:100F900004ED00E070B50546FFF792FF15B927484C
:100FA000006800E028460446201DFFF73FFF78B99F
:100FB000E06A00EB8000224951F8200040B994F823
:100FC0002C10012088401F49096881431D48016099
:100FD000A06A18B104F11800FFF728FF1A4800684A
:100FE000401C1949086015480068844209D1211D38
:100FF0001648FFF759FF16480068401C144908605E
:1010000009E014480068401E124908602046FFF7B6
:10101000EDFCFFF7EFFDFFF765FF0F48006858B1E3
:1010200006480068844207D14FF080500B490860A1
:10103000BFF34F8FBFF36F8F70BD00000000002023
:101040006C000020180000202C0000200C01002063
:101050000C000020100000201C00002004ED00E027
:101060001CB5114800210B468022CDE900100FA1CC
:10107000104800F093F80446012C14D100BFBF20A3
:1010800080F31188BFF34F8FBFF36F8F00BF4FF016
:10109000FF3009490860012008490860002008491C
:1010A000086000F047F81CBD3400002049444C455E
:1010B000000000007D0A0008300000201C00002015
:1010C0001400002002480068401C01490860704775
:1010D000380000201248006818B10120114908604A
:1010E0001DE000200F4908600F480068B0FA80F04A
:1010F000C0F11F0101EB81020C4B03EB820042683F
:101100005268426000F108024368934202D142688B
:10111000526842604268D268054B1A6000BF70474F
:101120003800002024000020180000206C0000205F
:101130000000002010B50A48006840F47F0008490C
:1011400008600846006840F07F400860FFF7FEFE38
:10115000002004490860FEF7E5FF002010BD0000F4
:1011600020ED00E05400002010B500BFBF2080F348
:101170001188BFF34F8FBFF36F8F00BF00F03EF8B1
:1011800018B14FF080500449086000BF002080F380
:10119000118800BF10BD000004ED00E02DE9FF4FF5
:1011A00085B0804689461746DDE912ABB800FFF7E7
:1011B00047FD064656B14C20FFF742FD04460CB1F0
:1011C000266304E03046FFF79DFE00E000247CB17A
:1011D0000020CDE900ABCDE902403A464946404601
:1011E000089BFFF75FFC2046FFF774FB012501E039
:1011F0004FF0FF35284609B0BDE8F08F2DE9F041EA
:1012000000273A480068002863D139480068451C27
:10121000374805608DB93748D0F8008036480068F7
:10122000344908603448C0F8008034480068401CE5
:1012300032490860FFF7DEFC00BF31480068854294
:101240003BD300BF2B480068006808B9012000E0CC
:10125000002020B14FF0FF30294908602CE02548DC
:101260000068C068C4686668B54202D22448066057
:1012700022E0201DFFF7DAFDA06A18B104F1180082
:10128000FFF7D4FD94F82C10012088401D4909680F
:1012900008431C490860E16A01EB81011A4A02EB2C
:1012A0008100211DFFF700FE1849E06A0968C96A3C
:1012B0008842C7D30127C5E700BF14480068C06A49
:1012C00000EB8000104951F82000012800D90127C7
:1012D00004E00F480068401C0D4908600D48006894
:1012E00000B101273846BDE8F08100003800002039
:1012F0001400002004000020080000202800002026
:1013000030000020180000206C00002000000020A9
:10131000200000202400002070B500240026FFF7E4
:10132000CFFD2E480068401E2C4908600846006822
:1013300000284FD12A48006800284BD024E02948D3
:10134000C068C46804F11800FFF770FD201DFFF7A6
:101350006DFD94F82C10012088402349096808434A
:1013600021490860E16A01EB8101204A02EB81001A
:10137000211DFFF799FD1E49E06A0968C96A884284
:1013800002D301201B4908601648006808B90120F3
:1013900000E000200028D2D00CB1FFF72BFC16484B
:1013A000056865B100BFFFF729FF10B101201149A1
:1013B00008606D1E002DF6D100200F4908600D4811
:1013C000006838B1012630070C490860BFF34F8F21
:1013D000BFF36F8FFFF786FD304670BD38000020E9
:1013E00010000020F8000020180000206C000020F1
:1013F00000000020240000202000002004ED00E078
:1014000020140008000000206C000000D407000831
:101410008C1400086C000020CC2C0000E4070008AD
:1014200000000000000000000000000000000000BC
:1014300000000000000000000000000000000000AC
:10144000000000000000000000000000000000009C
:10145000000000000000000000000000000000008C
:10146000000000000000000000000000000000007C
:1014700000000000AAAAAAAA0000000000000000C4
:0C14800000000000000000000000000060
:04000005080000ED02
:00000001FF
